{
  "contractName": "basicMath",
  "abi": [
    {
      "inputs": [
        {
          "internalType": "int256",
          "name": "x",
          "type": "int256"
        },
        {
          "internalType": "int256",
          "name": "y",
          "type": "int256"
        }
      ],
      "name": "add",
      "outputs": [
        {
          "internalType": "int256",
          "name": "",
          "type": "int256"
        }
      ],
      "stateMutability": "pure",
      "type": "function"
    },
    {
      "inputs": [
        {
          "internalType": "int256",
          "name": "x",
          "type": "int256"
        },
        {
          "internalType": "int256",
          "name": "y",
          "type": "int256"
        }
      ],
      "name": "subt",
      "outputs": [
        {
          "internalType": "int256",
          "name": "",
          "type": "int256"
        }
      ],
      "stateMutability": "pure",
      "type": "function"
    },
    {
      "inputs": [
        {
          "internalType": "int256",
          "name": "x",
          "type": "int256"
        },
        {
          "internalType": "int256",
          "name": "y",
          "type": "int256"
        }
      ],
      "name": "multiply",
      "outputs": [
        {
          "internalType": "int256",
          "name": "",
          "type": "int256"
        }
      ],
      "stateMutability": "pure",
      "type": "function"
    },
    {
      "inputs": [
        {
          "internalType": "int256",
          "name": "x",
          "type": "int256"
        },
        {
          "internalType": "int256",
          "name": "y",
          "type": "int256"
        }
      ],
      "name": "divide",
      "outputs": [
        {
          "internalType": "int256",
          "name": "",
          "type": "int256"
        }
      ],
      "stateMutability": "pure",
      "type": "function"
    },
    {
      "inputs": [
        {
          "internalType": "int256[]",
          "name": "data",
          "type": "int256[]"
        }
      ],
      "name": "sum",
      "outputs": [
        {
          "internalType": "int256",
          "name": "",
          "type": "int256"
        }
      ],
      "stateMutability": "pure",
      "type": "function"
    },
    {
      "inputs": [
        {
          "internalType": "int256[]",
          "name": "data",
          "type": "int256[]"
        }
      ],
      "name": "min",
      "outputs": [
        {
          "internalType": "int256",
          "name": "",
          "type": "int256"
        }
      ],
      "stateMutability": "pure",
      "type": "function"
    },
    {
      "inputs": [
        {
          "internalType": "int256[]",
          "name": "data",
          "type": "int256[]"
        }
      ],
      "name": "max",
      "outputs": [
        {
          "internalType": "int256",
          "name": "",
          "type": "int256"
        }
      ],
      "stateMutability": "pure",
      "type": "function"
    },
    {
      "inputs": [
        {
          "internalType": "int256[]",
          "name": "data",
          "type": "int256[]"
        }
      ],
      "name": "avg",
      "outputs": [
        {
          "internalType": "int256",
          "name": "",
          "type": "int256"
        }
      ],
      "stateMutability": "pure",
      "type": "function"
    }
  ],
  "bytecode": "0x608060405234801561001057600080fd5b50610c7a806100206000396000f3fe608060405234801561001057600080fd5b50600436106100885760003560e01c8063a5f3c23b1161005b578063a5f3c23b1461014d578063af6afce51461017d578063ccc13814146101ad578063f5984236146101dd57610088565b806329ded3461461008d5780633c4308a8146100bd57806360cb66d0146100ed5780637a3bc0a61461011d575b600080fd5b6100a760048036038101906100a29190610720565b61020d565b6040516100b49190610778565b60405180910390f35b6100d760048036038101906100d29190610793565b6102b0565b6040516100e49190610778565b60405180910390f35b61010760048036038101906101029190610720565b6102c6565b6040516101149190610778565b60405180910390f35b61013760048036038101906101329190610793565b61035d565b6040516101449190610778565b60405180910390f35b61016760048036038101906101629190610793565b610373565b6040516101749190610778565b60405180910390f35b61019760048036038101906101929190610720565b610389565b6040516101a49190610778565b60405180910390f35b6101c760048036038101906101c29190610720565b610457565b6040516101d49190610778565b60405180910390f35b6101f760048036038101906101f29190610793565b610525565b6040516102049190610778565b60405180910390f35b600080825111610252576040517f08c379a000000000000000000000000000000000000000000000000000000000815260040161024990610830565b60405180910390fd5b6000805b835181101561029a5783818151811061027257610271610850565b5b60200260200101518261028591906108ae565b915080806102929061094c565b915050610256565b508251816102a891906109c3565b915050919050565b600081836102be9190610a2d565b905092915050565b60008082511161030b576040517f08c379a000000000000000000000000000000000000000000000000000000000815260040161030290610830565b60405180910390fd5b6000805b83518110156103535783818151811061032b5761032a610850565b5b60200260200101518261033e91906108ae565b9150808061034b9061094c565b91505061030f565b5080915050919050565b6000818361036b9190610b44565b905092915050565b6000818361038191906108ae565b905092915050565b6000808251116103ce576040517f08c379a00000000000000000000000000000000000000000000000000000000081526004016103c590610830565b60405180910390fd5b6000826000815181106103e4576103e3610850565b5b6020026020010151905060005b835181101561044d5783818151811061040d5761040c610850565b5b602002602001015182131561043a5783818151811061042f5761042e610850565b5b602002602001015191505b80806104459061094c565b9150506103f1565b5080915050919050565b60008082511161049c576040517f08c379a000000000000000000000000000000000000000000000000000000000815260040161049390610830565b60405180910390fd5b6000826000815181106104b2576104b1610850565b5b6020026020010151905060005b835181101561051b578381815181106104db576104da610850565b5b6020026020010151821215610508578381815181106104fd576104fc610850565b5b602002602001015191505b80806105139061094c565b9150506104bf565b5080915050919050565b6000808203610569576040517f08c379a000000000000000000000000000000000000000000000000000000000815260040161056090610c24565b60405180910390fd5b818361057591906109c3565b905092915050565b6000604051905090565b600080fd5b600080fd5b600080fd5b6000601f19601f8301169050919050565b7f4e487b7100000000000000000000000000000000000000000000000000000000600052604160045260246000fd5b6105df82610596565b810181811067ffffffffffffffff821117156105fe576105fd6105a7565b5b80604052505050565b600061061161057d565b905061061d82826105d6565b919050565b600067ffffffffffffffff82111561063d5761063c6105a7565b5b602082029050602081019050919050565b600080fd5b6000819050919050565b61066681610653565b811461067157600080fd5b50565b6000813590506106838161065d565b92915050565b600061069c61069784610622565b610607565b905080838252602082019050602084028301858111156106bf576106be61064e565b5b835b818110156106e857806106d48882610674565b8452602084019350506020810190506106c1565b5050509392505050565b600082601f83011261070757610706610591565b5b8135610717848260208601610689565b91505092915050565b60006020828403121561073657610735610587565b5b600082013567ffffffffffffffff8111156107545761075361058c565b5b610760848285016106f2565b91505092915050565b61077281610653565b82525050565b600060208201905061078d6000830184610769565b92915050565b600080604083850312156107aa576107a9610587565b5b60006107b885828601610674565b92505060206107c985828601610674565b9150509250929050565b600082825260208201905092915050565b7f496e76616c696420646174610000000000000000000000000000000000000000600082015250565b600061081a600c836107d3565b9150610825826107e4565b602082019050919050565b600060208201905081810360008301526108498161080d565b9050919050565b7f4e487b7100000000000000000000000000000000000000000000000000000000600052603260045260246000fd5b7f4e487b7100000000000000000000000000000000000000000000000000000000600052601160045260246000fd5b60006108b982610653565b91506108c483610653565b9250817f7fffffffffffffffffffffffffffffffffffffffffffffffffffffffffffffff038313600083121516156108ff576108fe61087f565b5b817f80000000000000000000000000000000000000000000000000000000000000000383126000831216156109375761093661087f565b5b828201905092915050565b6000819050919050565b600061095782610942565b91507fffffffffffffffffffffffffffffffffffffffffffffffffffffffffffffffff82036109895761098861087f565b5b600182019050919050565b7f4e487b7100000000000000000000000000000000000000000000000000000000600052601260045260246000fd5b60006109ce82610653565b91506109d983610653565b9250826109e9576109e8610994565b5b600160000383147f800000000000000000000000000000000000000000000000000000000000000083141615610a2257610a2161087f565b5b828205905092915050565b6000610a3882610653565b9150610a4383610653565b9250827f7fffffffffffffffffffffffffffffffffffffffffffffffffffffffffffffff0482116000841360008413161615610a8257610a8161087f565b5b817f80000000000000000000000000000000000000000000000000000000000000000583126000841260008413161615610abf57610abe61087f565b5b827f80000000000000000000000000000000000000000000000000000000000000000582126000841360008412161615610afc57610afb61087f565b5b827f7fffffffffffffffffffffffffffffffffffffffffffffffffffffffffffffff0582126000841260008412161615610b3957610b3861087f565b5b828202905092915050565b6000610b4f82610653565b9150610b5a83610653565b9250827f800000000000000000000000000000000000000000000000000000000000000001821260008412151615610b9557610b9461087f565b5b827f7fffffffffffffffffffffffffffffffffffffffffffffffffffffffffffffff018213600084121615610bcd57610bcc61087f565b5b828203905092915050565b7f646976696465206279207a65726f000000000000000000000000000000000000600082015250565b6000610c0e600e836107d3565b9150610c1982610bd8565b602082019050919050565b60006020820190508181036000830152610c3d81610c01565b905091905056fea2646970667358221220b07966dcf8b60dca913a96dca7b0048d40a8454285912435a0b9a057c218a8a064736f6c634300080d0033",
  "immutableReferences": {},
  "source": "// SPDX-License-Identifier: MIT\npragma solidity >=0.4.22 <0.9.0;\n\ncontract basicMath {\n  function add(int x, int y) public pure returns (int) {\n    return x + y;\n  }\n  function subt(int x, int y) public pure returns (int) {\n    return x - y;\n  }\n  function multiply(int x, int y) public pure returns (int) {\n    return x * y;\n  }\n  function divide(int x, int y) public pure returns (int) {\n    require(y != 0, 'divide by zero');\n    return x / y;\n  }\n\n  //exercise 14/2/2023\n  function sum(int [] memory data) public pure returns (int) {\n    require(data.length > 0, 'Invalid data');\n    int sum = 0;\n    for(uint i = 0; i < data.length; i++){\n      sum = sum + data[i];\n    }\n    return sum;\n  }\n  function min(int [] memory data) public pure returns (int) {\n    require(data.length > 0, 'Invalid data');\n    int min = data[0];\n    for(uint i = 0; i < data.length; i++){\n      if(min > data[i]){\n        min = data[i];\n      }\n    }\n    return min;\n  }\n  function max(int [] memory data) public pure returns (int) {\n    require(data.length > 0, 'Invalid data');\n    int max = data[0];\n    for(uint i = 0; i < data.length; i++){\n      if(max < data[i]){\n        max = data[i];\n      }\n    }\n    return max;\n    \n  }\n  function avg(int [] memory data) public pure returns (int) {\n    require(data.length > 0, 'Invalid data');\n    int sum = 0;\n    for(uint i = 0; i < data.length; i++){\n      sum = sum + data[i];\n    }\n    return sum / int(data.length);\n  }\n}\n",
  "sourcePath": "C:\\Users\\boype\\Documents\\CE340\\contracts\\basicMath.sol",
  "compiler": {
    "name": "solc",
    "version": "0.8.13+commit.abaa5c0e.Emscripten.clang"
  },
  "schemaVersion": "3.4.11",
  "updatedAt": "2023-02-21T04:36:04.808Z",
  "devdoc": {
    "kind": "dev",
    "methods": {},
    "version": 1
  },
  "userdoc": {
    "kind": "user",
    "methods": {},
    "version": 1
  }
}