{
  "contractName": "MyAuction",
  "abi": [
    {
      "inputs": [
        {
          "internalType": "string",
          "name": "brand",
          "type": "string"
        },
        {
          "internalType": "string",
          "name": "serial",
          "type": "string"
        },
        {
          "internalType": "uint256",
          "name": "period",
          "type": "uint256"
        }
      ],
      "stateMutability": "nonpayable",
      "type": "constructor"
    },
    {
      "anonymous": false,
      "inputs": [
        {
          "indexed": false,
          "internalType": "address",
          "name": "highestBidder",
          "type": "address"
        },
        {
          "indexed": false,
          "internalType": "uint256",
          "name": "highestBid",
          "type": "uint256"
        },
        {
          "indexed": false,
          "internalType": "uint256",
          "name": "timestamp",
          "type": "uint256"
        }
      ],
      "name": "BidEvent",
      "type": "event"
    },
    {
      "anonymous": false,
      "inputs": [
        {
          "indexed": false,
          "internalType": "uint256",
          "name": "timestamp",
          "type": "uint256"
        }
      ],
      "name": "CancelEvent",
      "type": "event"
    },
    {
      "anonymous": false,
      "inputs": [
        {
          "indexed": false,
          "internalType": "address",
          "name": "highestBidder",
          "type": "address"
        },
        {
          "indexed": false,
          "internalType": "uint256",
          "name": "highestBid",
          "type": "uint256"
        },
        {
          "indexed": false,
          "internalType": "uint256",
          "name": "timestamp",
          "type": "uint256"
        }
      ],
      "name": "EndEvent",
      "type": "event"
    },
    {
      "anonymous": false,
      "inputs": [
        {
          "indexed": false,
          "internalType": "address",
          "name": "bidder",
          "type": "address"
        },
        {
          "indexed": false,
          "internalType": "uint256",
          "name": "amount",
          "type": "uint256"
        },
        {
          "indexed": false,
          "internalType": "uint256",
          "name": "timestampe",
          "type": "uint256"
        }
      ],
      "name": "WithdrawEvent",
      "type": "event"
    },
    {
      "inputs": [],
      "name": "STATE",
      "outputs": [
        {
          "internalType": "enum Auction.AuctionState",
          "name": "",
          "type": "uint8"
        }
      ],
      "stateMutability": "view",
      "type": "function"
    },
    {
      "inputs": [],
      "name": "auctionEnd",
      "outputs": [
        {
          "internalType": "uint256",
          "name": "",
          "type": "uint256"
        }
      ],
      "stateMutability": "view",
      "type": "function"
    },
    {
      "inputs": [],
      "name": "auctionOwner",
      "outputs": [
        {
          "internalType": "address payable",
          "name": "",
          "type": "address"
        }
      ],
      "stateMutability": "view",
      "type": "function"
    },
    {
      "inputs": [],
      "name": "auctionStart",
      "outputs": [
        {
          "internalType": "uint256",
          "name": "",
          "type": "uint256"
        }
      ],
      "stateMutability": "view",
      "type": "function"
    },
    {
      "inputs": [],
      "name": "highestBid",
      "outputs": [
        {
          "internalType": "uint256",
          "name": "",
          "type": "uint256"
        }
      ],
      "stateMutability": "view",
      "type": "function"
    },
    {
      "inputs": [],
      "name": "highestBidder",
      "outputs": [
        {
          "internalType": "address",
          "name": "",
          "type": "address"
        }
      ],
      "stateMutability": "view",
      "type": "function"
    },
    {
      "inputs": [],
      "name": "myProduct",
      "outputs": [
        {
          "internalType": "string",
          "name": "brand",
          "type": "string"
        },
        {
          "internalType": "string",
          "name": "serialNumber",
          "type": "string"
        }
      ],
      "stateMutability": "view",
      "type": "function"
    },
    {
      "inputs": [],
      "name": "cancelAuction",
      "outputs": [
        {
          "internalType": "bool",
          "name": "",
          "type": "bool"
        }
      ],
      "stateMutability": "nonpayable",
      "type": "function"
    },
    {
      "inputs": [],
      "name": "endAuction",
      "outputs": [
        {
          "internalType": "bool",
          "name": "",
          "type": "bool"
        }
      ],
      "stateMutability": "nonpayable",
      "type": "function"
    },
    {
      "inputs": [],
      "name": "bid",
      "outputs": [
        {
          "internalType": "bool",
          "name": "",
          "type": "bool"
        }
      ],
      "stateMutability": "payable",
      "type": "function"
    },
    {
      "inputs": [],
      "name": "getProductInfo",
      "outputs": [
        {
          "internalType": "string",
          "name": "",
          "type": "string"
        },
        {
          "internalType": "string",
          "name": "",
          "type": "string"
        }
      ],
      "stateMutability": "view",
      "type": "function"
    },
    {
      "inputs": [],
      "name": "withdraw",
      "outputs": [
        {
          "internalType": "bool",
          "name": "",
          "type": "bool"
        }
      ],
      "stateMutability": "nonpayable",
      "type": "function"
    },
    {
      "inputs": [
        {
          "internalType": "address",
          "name": "bidder",
          "type": "address"
        }
      ],
      "name": "getMyBid",
      "outputs": [
        {
          "internalType": "uint256",
          "name": "",
          "type": "uint256"
        }
      ],
      "stateMutability": "view",
      "type": "function"
    }
  ],
  "bytecode": "0x60806040523480156200001157600080fd5b5060405162001863380380620018638339818101604052810190620000379190620003ba565b336000806101000a81548173ffffffffffffffffffffffffffffffffffffffff021916908373ffffffffffffffffffffffffffffffffffffffff16021790555042600181905550610e10816200008e919062000483565b6001546200009d9190620004e4565b6002819055506000600460146101000a81548160ff02191690836003811115620000cc57620000cb62000541565b5b0217905550604051806040016040528084815260200183815250600560008201518160000190805190602001906200010692919062000132565b5060208201518160010190805190602001906200012592919062000132565b50905050505050620005d4565b82805462000140906200059f565b90600052602060002090601f016020900481019282620001645760008555620001b0565b82601f106200017f57805160ff1916838001178555620001b0565b82800160010185558215620001b0579182015b82811115620001af57825182559160200191906001019062000192565b5b509050620001bf9190620001c3565b5090565b5b80821115620001de576000816000905550600101620001c4565b5090565b6000604051905090565b600080fd5b600080fd5b600080fd5b600080fd5b6000601f19601f8301169050919050565b7f4e487b7100000000000000000000000000000000000000000000000000000000600052604160045260246000fd5b6200024b8262000200565b810181811067ffffffffffffffff821117156200026d576200026c62000211565b5b80604052505050565b600062000282620001e2565b905062000290828262000240565b919050565b600067ffffffffffffffff821115620002b357620002b262000211565b5b620002be8262000200565b9050602081019050919050565b60005b83811015620002eb578082015181840152602081019050620002ce565b83811115620002fb576000848401525b50505050565b600062000318620003128462000295565b62000276565b905082815260208101848484011115620003375762000336620001fb565b5b62000344848285620002cb565b509392505050565b600082601f830112620003645762000363620001f6565b5b81516200037684826020860162000301565b91505092915050565b6000819050919050565b62000394816200037f565b8114620003a057600080fd5b50565b600081519050620003b48162000389565b92915050565b600080600060608486031215620003d657620003d5620001ec565b5b600084015167ffffffffffffffff811115620003f757620003f6620001f1565b5b62000405868287016200034c565b935050602084015167ffffffffffffffff811115620004295762000428620001f1565b5b62000437868287016200034c565b92505060406200044a86828701620003a3565b9150509250925092565b7f4e487b7100000000000000000000000000000000000000000000000000000000600052601160045260246000fd5b600062000490826200037f565b91506200049d836200037f565b9250817fffffffffffffffffffffffffffffffffffffffffffffffffffffffffffffffff0483118215151615620004d957620004d862000454565b5b828202905092915050565b6000620004f1826200037f565b9150620004fe836200037f565b9250827fffffffffffffffffffffffffffffffffffffffffffffffffffffffffffffffff0382111562000536576200053562000454565b5b828201905092915050565b7f4e487b7100000000000000000000000000000000000000000000000000000000600052602160045260246000fd5b7f4e487b7100000000000000000000000000000000000000000000000000000000600052602260045260246000fd5b60006002820490506001821680620005b857607f821691505b602082108103620005ce57620005cd62000570565b5b50919050565b61127f80620005e46000396000f3fe6080604052600436106100c25760003560e01c806391f901571161007f578063d3924aaf11610059578063d3924aaf14610250578063d57bde791461027b578063fc72a385146102a6578063fe67a54b146102d2576100c2565b806391f90157146101ce578063bd358967146101f9578063c486456c14610225576100c2565b80631998aeef146100c75780632a24f46c146100e55780633ccfd60b146101105780634f245ef71461013b5780635337bde0146101665780638fa8b790146101a3575b600080fd5b6100cf6102fd565b6040516100dc9190610ca3565b60405180910390f35b3480156100f157600080fd5b506100fa610543565b6040516101079190610cd7565b60405180910390f35b34801561011c57600080fd5b50610125610549565b6040516101329190610ca3565b60405180910390f35b34801561014757600080fd5b506101506107d7565b60405161015d9190610cd7565b60405180910390f35b34801561017257600080fd5b5061018d60048036038101906101889190610d55565b6107dd565b60405161019a9190610cd7565b60405180910390f35b3480156101af57600080fd5b506101b8610826565b6040516101c59190610ca3565b60405180910390f35b3480156101da57600080fd5b506101e36108ea565b6040516101f09190610d91565b60405180910390f35b34801561020557600080fd5b5061020e610910565b60405161021c929190610e45565b60405180910390f35b34801561023157600080fd5b5061023a610a32565b6040516102479190610ef3565b60405180910390f35b34801561025c57600080fd5b50610265610a45565b6040516102729190610f2f565b60405180910390f35b34801561028757600080fd5b50610290610a69565b60405161029d9190610cd7565b60405180910390f35b3480156102b257600080fd5b506102bb610a6f565b6040516102c9929190610e45565b60405180910390f35b3480156102de57600080fd5b506102e7610b9c565b6040516102f49190610ca3565b60405180910390f35b600080600381111561031257610311610e7c565b5b600460149054906101000a900460ff16600381111561033457610333610e7c565b5b1461033e57600080fd5b3373ffffffffffffffffffffffffffffffffffffffff16600460009054906101000a900473ffffffffffffffffffffffffffffffffffffffff1673ffffffffffffffffffffffffffffffffffffffff16036103ce576040517f08c379a00000000000000000000000000000000000000000000000000000000081526004016103c590610f96565b60405180910390fd5b6003543411610412576040517f08c379a000000000000000000000000000000000000000000000000000000000815260040161040990611002565b60405180910390fd5b33600460006101000a81548173ffffffffffffffffffffffffffffffffffffffff021916908373ffffffffffffffffffffffffffffffffffffffff1602179055503460038190555034600760003373ffffffffffffffffffffffffffffffffffffffff1673ffffffffffffffffffffffffffffffffffffffff168152602001908152602001600020819055506008339080600181540180825580915050600190039060005260206000200160009091909190916101000a81548173ffffffffffffffffffffffffffffffffffffffff021916908373ffffffffffffffffffffffffffffffffffffffff1602179055507f8af6b8ce9e717802e71d82fde14340886903c7ba4a5513f0a177b5ae534066bf33344260405161053493929190611022565b60405180910390a16001905090565b60025481565b6000600460009054906101000a900473ffffffffffffffffffffffffffffffffffffffff1673ffffffffffffffffffffffffffffffffffffffff163373ffffffffffffffffffffffffffffffffffffffff16036105db576040517f08c379a00000000000000000000000000000000000000000000000000000000081526004016105d2906110a5565b60405180910390fd5b600060038111156105ef576105ee610e7c565b5b600460149054906101000a900460ff16600381111561061157610610610e7c565b5b03610651576040517f08c379a000000000000000000000000000000000000000000000000000000000815260040161064890611137565b60405180910390fd5b60038081111561066457610663610e7c565b5b600460149054906101000a900460ff16600381111561068657610685610e7c565b5b036106c6576040517f08c379a00000000000000000000000000000000000000000000000000000000081526004016106bd906111c9565b60405180910390fd5b6000600760003373ffffffffffffffffffffffffffffffffffffffff1673ffffffffffffffffffffffffffffffffffffffff168152602001908152602001600020549050600760003373ffffffffffffffffffffffffffffffffffffffff1673ffffffffffffffffffffffffffffffffffffffff168152602001908152602001600020600090553373ffffffffffffffffffffffffffffffffffffffff166108fc829081150290604051600060405180830381858888f19350505050158015610793573d6000803e3d6000fd5b507f5bb95829671915ece371da722f91d5371159095dcabf2f75cd6c53facb7e1bab3382426040516107c793929190611022565b60405180910390a1600191505090565b60015481565b6000600760008373ffffffffffffffffffffffffffffffffffffffff1673ffffffffffffffffffffffffffffffffffffffff168152602001908152602001600020549050919050565b60008060009054906101000a900473ffffffffffffffffffffffffffffffffffffffff1673ffffffffffffffffffffffffffffffffffffffff163373ffffffffffffffffffffffffffffffffffffffff161461088157600080fd5b6001600460146101000a81548160ff021916908360038111156108a7576108a6610e7c565b5b02179055507fe933406ce445ea24d84ca4529e514adc8926e62cdc8b5a67c568c9fd578f1a8a426040516108db9190610cd7565b60405180910390a16001905090565b600460009054906101000a900473ffffffffffffffffffffffffffffffffffffffff1681565b600580600001805461092190611218565b80601f016020809104026020016040519081016040528092919081815260200182805461094d90611218565b801561099a5780601f1061096f5761010080835404028352916020019161099a565b820191906000526020600020905b81548152906001019060200180831161097d57829003601f168201915b5050505050908060010180546109af90611218565b80601f01602080910402602001604051908101604052809291908181526020018280546109db90611218565b8015610a285780601f106109fd57610100808354040283529160200191610a28565b820191906000526020600020905b815481529060010190602001808311610a0b57829003601f168201915b5050505050905082565b600460149054906101000a900460ff1681565b60008054906101000a900473ffffffffffffffffffffffffffffffffffffffff1681565b60035481565b60608060056000016005600101818054610a8890611218565b80601f0160208091040260200160405190810160405280929190818152602001828054610ab490611218565b8015610b015780601f10610ad657610100808354040283529160200191610b01565b820191906000526020600020905b815481529060010190602001808311610ae457829003601f168201915b50505050509150808054610b1490611218565b80601f0160208091040260200160405190810160405280929190818152602001828054610b4090611218565b8015610b8d5780601f10610b6257610100808354040283529160200191610b8d565b820191906000526020600020905b815481529060010190602001808311610b7057829003601f168201915b50505050509050915091509091565b60008060009054906101000a900473ffffffffffffffffffffffffffffffffffffffff1673ffffffffffffffffffffffffffffffffffffffff163373ffffffffffffffffffffffffffffffffffffffff1614610bf757600080fd5b6002600460146101000a81548160ff02191690836003811115610c1d57610c1c610e7c565b5b02179055507fa924629d4099d6537de855ae6fb7a38e37a8d9717b2b51c33b8f6da2f20b82dd600460009054906101000a900473ffffffffffffffffffffffffffffffffffffffff1660035442604051610c7993929190611022565b60405180910390a16001905090565b60008115159050919050565b610c9d81610c88565b82525050565b6000602082019050610cb86000830184610c94565b92915050565b6000819050919050565b610cd181610cbe565b82525050565b6000602082019050610cec6000830184610cc8565b92915050565b600080fd5b600073ffffffffffffffffffffffffffffffffffffffff82169050919050565b6000610d2282610cf7565b9050919050565b610d3281610d17565b8114610d3d57600080fd5b50565b600081359050610d4f81610d29565b92915050565b600060208284031215610d6b57610d6a610cf2565b5b6000610d7984828501610d40565b91505092915050565b610d8b81610d17565b82525050565b6000602082019050610da66000830184610d82565b92915050565b600081519050919050565b600082825260208201905092915050565b60005b83811015610de6578082015181840152602081019050610dcb565b83811115610df5576000848401525b50505050565b6000601f19601f8301169050919050565b6000610e1782610dac565b610e218185610db7565b9350610e31818560208601610dc8565b610e3a81610dfb565b840191505092915050565b60006040820190508181036000830152610e5f8185610e0c565b90508181036020830152610e738184610e0c565b90509392505050565b7f4e487b7100000000000000000000000000000000000000000000000000000000600052602160045260246000fd5b60048110610ebc57610ebb610e7c565b5b50565b6000819050610ecd82610eab565b919050565b6000610edd82610ebf565b9050919050565b610eed81610ed2565b82525050565b6000602082019050610f086000830184610ee4565b92915050565b6000610f1982610cf7565b9050919050565b610f2981610f0e565b82525050565b6000602082019050610f446000830184610f20565b92915050565b7f416c726561647920612063757272656e74206869676865737420626964646572600082015250565b6000610f80602083610db7565b9150610f8b82610f4a565b602082019050919050565b60006020820190508181036000830152610faf81610f73565b9050919050565b7f4f6e6c79206869676865722062696420697320616c6c6f776564000000000000600082015250565b6000610fec601a83610db7565b9150610ff782610fb6565b602082019050919050565b6000602082019050818103600083015261101b81610fdf565b9050919050565b60006060820190506110376000830186610d82565b6110446020830185610cc8565b6110516040830184610cc8565b949350505050565b7f5468652077696e6e65722063616e206e6f742077697468647261770000000000600082015250565b600061108f601b83610db7565b915061109a82611059565b602082019050919050565b600060208201905081810360008301526110be81611082565b9050919050565b7f43616e206e6f742077697468647261772066726f6d206f6e676f696e6720617560008201527f6374696f6e000000000000000000000000000000000000000000000000000000602082015250565b6000611121602583610db7565b915061112c826110c5565b604082019050919050565b6000602082019050818103600083015261115081611114565b9050919050565b7f43616e206e6f742077697468647261772066726f6d2064657374726f7965642060008201527f636f6e7472616374000000000000000000000000000000000000000000000000602082015250565b60006111b3602883610db7565b91506111be82611157565b604082019050919050565b600060208201905081810360008301526111e2816111a6565b9050919050565b7f4e487b7100000000000000000000000000000000000000000000000000000000600052602260045260246000fd5b6000600282049050600182168061123057607f821691505b602082108103611243576112426111e9565b5b5091905056fea2646970667358221220836d6c643b2a1323cf8b249c78b673439799e212055691c1ba93bf2066ce8fc164736f6c634300080d0033",
  "immutableReferences": {},
  "source": "// SPDX-License-Identifier: MIT\npragma solidity >=0.4.22 <0.9.0;\n\nimport \"./Auction.sol\";\n\ncontract MyAuction is Auction {\n    Product public myProduct;\n    mapping (address => uint) bids; // mapping  rows \n    address[] bidders; //  bidder  rows  mapping\n\n    // , id, \n    constructor(string memory brand, string memory serial, uint period) {\n      // create auction\n      auctionOwner = payable(msg.sender); // address => address payable\n      auctionStart = block.timestamp;\n      auctionEnd = auctionStart + period * 1 hours;\n      STATE = AuctionState.STARTED;\n      myProduct = Product(brand, serial);\n    }\n\n    modifier onlyOwner {\n      require(msg.sender == auctionOwner);\n      _;\n    }\n\n    modifier onGoingAuction {\n      require(STATE == AuctionState.STARTED);\n      _;\n    }\n\n    event CancelEvent(uint timestamp);\n    function cancelAuction() public override onlyOwner returns (bool) {\n      STATE = AuctionState.CANCELLED;\n      emit CancelEvent(block.timestamp);\n      return true;\n    }\n\n    event EndEvent(address highestBidder, uint highestBid, uint timestamp);\n    function endAuction() public override onlyOwner returns (bool) {\n      STATE = AuctionState.ENDED;\n      emit EndEvent(highestBidder, highestBid, block.timestamp);\n      return true;\n    }\n\n    event BidEvent(address highestBidder, uint highestBid, uint timestamp);\n    function bid() public payable override onGoingAuction returns (bool) {\n      require(highestBidder != msg.sender, \"Already a current highest bidder\");\n      require(msg.value > highestBid, \"Only higher bid is allowed\");\n      highestBidder = msg.sender;\n      highestBid = msg.value;\n      bids[msg.sender] = msg.value;\n      bidders.push(msg.sender);\n      emit BidEvent(msg.sender, msg.value, block.timestamp);\n      return true;\n    }\n\n    // function getStatus() public override returns (uint) {\n    //   return STATE;\n    // }\n\n  function getProductInfo() public override view returns (string memory, string memory)\n  {\n    return (myProduct.brand, myProduct.serialNumber);\n  }\n\n  event WithdrawEvent(address bidder, uint amount, uint timestampe);\n  function withdraw() public override returns (bool) {\n    require(msg.sender != highestBidder, \"The winner can not withdraw\");\n    require(STATE != AuctionState.STARTED, \"Can not withdraw from ongoing auction\");\n    require(STATE != AuctionState.DESTRUCTED, \"Can not withdraw from destroyed contract\");\n\n    uint amount = bids[msg.sender];\n    delete bids[msg.sender];\n    payable(msg.sender).transfer(amount);\n    emit WithdrawEvent(msg.sender, amount, block.timestamp);\n    return true;\n  }\n\n  function getMyBid(address bidder) public override view returns (uint) {\n    return bids[bidder];\n  }\n}\n",
  "sourcePath": "C:\\Users\\boype\\Documents\\CE340\\contracts\\MyAuction.sol",
  "compiler": {
    "name": "solc",
    "version": "0.8.13+commit.abaa5c0e.Emscripten.clang"
  },
  "schemaVersion": "3.4.11",
  "updatedAt": "2023-04-18T04:08:13.359Z",
  "devdoc": {
    "kind": "dev",
    "methods": {},
    "version": 1
  },
  "userdoc": {
    "kind": "user",
    "methods": {},
    "version": 1
  }
}