{
  "contractName": "Petshop",
  "abi": [
    {
      "inputs": [
        {
          "internalType": "uint256[]",
          "name": "petPrices",
          "type": "uint256[]"
        }
      ],
      "stateMutability": "nonpayable",
      "type": "constructor"
    },
    {
      "anonymous": false,
      "inputs": [
        {
          "indexed": false,
          "internalType": "uint256",
          "name": "petId",
          "type": "uint256"
        },
        {
          "indexed": true,
          "internalType": "address",
          "name": "buyer",
          "type": "address"
        },
        {
          "indexed": false,
          "internalType": "uint256",
          "name": "price",
          "type": "uint256"
        },
        {
          "indexed": false,
          "internalType": "uint256",
          "name": "time",
          "type": "uint256"
        }
      ],
      "name": "Sold",
      "type": "event"
    },
    {
      "anonymous": false,
      "inputs": [
        {
          "indexed": false,
          "internalType": "uint256",
          "name": "amount",
          "type": "uint256"
        },
        {
          "indexed": true,
          "internalType": "uint256",
          "name": "time",
          "type": "uint256"
        }
      ],
      "name": "Withdrawn",
      "type": "event"
    },
    {
      "inputs": [],
      "name": "petCount",
      "outputs": [
        {
          "internalType": "uint256",
          "name": "",
          "type": "uint256"
        }
      ],
      "stateMutability": "view",
      "type": "function",
      "constant": true
    },
    {
      "inputs": [
        {
          "internalType": "uint256",
          "name": "",
          "type": "uint256"
        }
      ],
      "name": "petInfos",
      "outputs": [
        {
          "internalType": "uint256",
          "name": "price",
          "type": "uint256"
        },
        {
          "internalType": "address",
          "name": "buyer",
          "type": "address"
        }
      ],
      "stateMutability": "view",
      "type": "function",
      "constant": true
    },
    {
      "inputs": [],
      "name": "shopOwner",
      "outputs": [
        {
          "internalType": "address payable",
          "name": "",
          "type": "address"
        }
      ],
      "stateMutability": "view",
      "type": "function",
      "constant": true
    },
    {
      "inputs": [
        {
          "internalType": "uint256",
          "name": "petId",
          "type": "uint256"
        }
      ],
      "name": "buy",
      "outputs": [],
      "stateMutability": "payable",
      "type": "function",
      "payable": true
    },
    {
      "inputs": [
        {
          "internalType": "uint256",
          "name": "petId",
          "type": "uint256"
        }
      ],
      "name": "getPetInfo",
      "outputs": [
        {
          "internalType": "uint256",
          "name": "",
          "type": "uint256"
        },
        {
          "internalType": "address",
          "name": "",
          "type": "address"
        }
      ],
      "stateMutability": "view",
      "type": "function",
      "constant": true
    },
    {
      "inputs": [
        {
          "internalType": "uint256",
          "name": "petId",
          "type": "uint256"
        }
      ],
      "name": "getBuyer",
      "outputs": [
        {
          "internalType": "address",
          "name": "",
          "type": "address"
        }
      ],
      "stateMutability": "view",
      "type": "function",
      "constant": true
    },
    {
      "inputs": [
        {
          "internalType": "uint256",
          "name": "petId",
          "type": "uint256"
        }
      ],
      "name": "getPrice",
      "outputs": [
        {
          "internalType": "uint256",
          "name": "",
          "type": "uint256"
        }
      ],
      "stateMutability": "view",
      "type": "function",
      "constant": true
    },
    {
      "inputs": [],
      "name": "getBalance",
      "outputs": [
        {
          "internalType": "uint256",
          "name": "",
          "type": "uint256"
        }
      ],
      "stateMutability": "view",
      "type": "function",
      "constant": true
    },
    {
      "inputs": [
        {
          "internalType": "uint256",
          "name": "amount",
          "type": "uint256"
        }
      ],
      "name": "withdraw",
      "outputs": [],
      "stateMutability": "nonpayable",
      "type": "function"
    },
    {
      "inputs": [],
      "name": "getTotalPets",
      "outputs": [
        {
          "internalType": "uint256",
          "name": "",
          "type": "uint256"
        }
      ],
      "stateMutability": "view",
      "type": "function",
      "constant": true
    }
  ],
  "bytecode": "0x60806040523480156200001157600080fd5b50604051620011cd380380620011cd833981810160405281019062000037919062000350565b336000806101000a81548173ffffffffffffffffffffffffffffffffffffffff021916908373ffffffffffffffffffffffffffffffffffffffff16021790555060005b81518110156200017c5760006040518060400160405280670de0b6b3a7640000858581518110620000b057620000af620003a1565b5b6020026020010151620000c49190620003ff565b8152602001600073ffffffffffffffffffffffffffffffffffffffff16815250905060028190806001815401808255809150506001900390600052602060002090600202016000909190919091506000820151816000015560208201518160010160006101000a81548173ffffffffffffffffffffffffffffffffffffffff021916908373ffffffffffffffffffffffffffffffffffffffff1602179055505050508080620001739062000460565b9150506200007a565b50805160018190555050620004ad565b6000604051905090565b600080fd5b600080fd5b600080fd5b6000601f19601f8301169050919050565b7f4e487b7100000000000000000000000000000000000000000000000000000000600052604160045260246000fd5b620001f082620001a5565b810181811067ffffffffffffffff82111715620002125762000211620001b6565b5b80604052505050565b6000620002276200018c565b9050620002358282620001e5565b919050565b600067ffffffffffffffff821115620002585762000257620001b6565b5b602082029050602081019050919050565b600080fd5b6000819050919050565b62000283816200026e565b81146200028f57600080fd5b50565b600081519050620002a38162000278565b92915050565b6000620002c0620002ba846200023a565b6200021b565b90508083825260208201905060208402830185811115620002e657620002e562000269565b5b835b81811015620003135780620002fe888262000292565b845260208401935050602081019050620002e8565b5050509392505050565b600082601f830112620003355762000334620001a0565b5b815162000347848260208601620002a9565b91505092915050565b60006020828403121562000369576200036862000196565b5b600082015167ffffffffffffffff8111156200038a57620003896200019b565b5b62000398848285016200031d565b91505092915050565b7f4e487b7100000000000000000000000000000000000000000000000000000000600052603260045260246000fd5b7f4e487b7100000000000000000000000000000000000000000000000000000000600052601160045260246000fd5b60006200040c826200026e565b915062000419836200026e565b9250817fffffffffffffffffffffffffffffffffffffffffffffffffffffffffffffffff0483118215151615620004555762000454620003d0565b5b828202905092915050565b60006200046d826200026e565b91507fffffffffffffffffffffffffffffffffffffffffffffffffffffffffffffffff8203620004a257620004a1620003d0565b5b600182019050919050565b610d1080620004bd6000396000f3fe6080604052600436106100915760003560e01c806380f03fa61161005957806380f03fa614610190578063cd619f58146101bb578063d96a094a146101e6578063e757223014610202578063e8ac35431461023f57610091565b8063052cbab61461009657806312065fe0146100c15780632e1a7d4d146100ec5780635bf608b81461011557806369c3f31614610152575b600080fd5b3480156100a257600080fd5b506100ab61027d565b6040516100b891906108e9565b60405180910390f35b3480156100cd57600080fd5b506100d66102a1565b6040516100e3919061091d565b60405180910390f35b3480156100f857600080fd5b50610113600480360381019061010e9190610969565b610338565b005b34801561012157600080fd5b5061013c60048036038101906101379190610969565b610475565b60405161014991906109b7565b60405180910390f35b34801561015e57600080fd5b5061017960048036038101906101749190610969565b6104c4565b6040516101879291906109d2565b60405180910390f35b34801561019c57600080fd5b506101a561053c565b6040516101b2919061091d565b60405180910390f35b3480156101c757600080fd5b506101d0610546565b6040516101dd919061091d565b60405180910390f35b61020060048036038101906101fb9190610969565b61054c565b005b34801561020e57600080fd5b5061022960048036038101906102249190610969565b610825565b604051610236919061091d565b60405180910390f35b34801561024b57600080fd5b5061026660048036038101906102619190610969565b610854565b6040516102749291906109d2565b60405180910390f35b60008054906101000a900473ffffffffffffffffffffffffffffffffffffffff1681565b60008060009054906101000a900473ffffffffffffffffffffffffffffffffffffffff1673ffffffffffffffffffffffffffffffffffffffff163373ffffffffffffffffffffffffffffffffffffffff1614610332576040517f08c379a000000000000000000000000000000000000000000000000000000000815260040161032990610a7e565b60405180910390fd5b47905090565b60008054906101000a900473ffffffffffffffffffffffffffffffffffffffff1673ffffffffffffffffffffffffffffffffffffffff163373ffffffffffffffffffffffffffffffffffffffff16146103c6576040517f08c379a00000000000000000000000000000000000000000000000000000000081526004016103bd90610a7e565b60405180910390fd5b478111156103d357600080fd5b60008054906101000a900473ffffffffffffffffffffffffffffffffffffffff1673ffffffffffffffffffffffffffffffffffffffff166108fc829081150290604051600060405180830381858888f19350505050158015610439573d6000803e3d6000fd5b50427f0c875c8d391179c5cf7ad8303d268efd50b8beb78b671f85cd54bfb91eb8ef408260405161046a919061091d565b60405180910390a250565b60006002828154811061048b5761048a610a9e565b5b906000526020600020906002020160010160009054906101000a900473ffffffffffffffffffffffffffffffffffffffff169050919050565b600080600283815481106104db576104da610a9e565b5b9060005260206000209060020201600001546002848154811061050157610500610a9e565b5b906000526020600020906002020160010160009054906101000a900473ffffffffffffffffffffffffffffffffffffffff1691509150915091565b6000600154905090565b60015481565b60008054906101000a900473ffffffffffffffffffffffffffffffffffffffff1673ffffffffffffffffffffffffffffffffffffffff163373ffffffffffffffffffffffffffffffffffffffff16036105da576040517f08c379a00000000000000000000000000000000000000000000000000000000081526004016105d190610b3f565b60405180910390fd5b600081101580156105ec575060015481105b61062b576040517f08c379a000000000000000000000000000000000000000000000000000000000815260040161062290610bab565b60405180910390fd5b6002818154811061063f5761063e610a9e565b5b906000526020600020906002020160000154341015610693576040517f08c379a000000000000000000000000000000000000000000000000000000000815260040161068a90610c17565b60405180910390fd5b600073ffffffffffffffffffffffffffffffffffffffff16600282815481106106bf576106be610a9e565b5b906000526020600020906002020160010160009054906101000a900473ffffffffffffffffffffffffffffffffffffffff1673ffffffffffffffffffffffffffffffffffffffff1614610747576040517f08c379a000000000000000000000000000000000000000000000000000000000815260040161073e90610c83565b60405180910390fd5b336002828154811061075c5761075b610a9e565b5b906000526020600020906002020160010160006101000a81548173ffffffffffffffffffffffffffffffffffffffff021916908373ffffffffffffffffffffffffffffffffffffffff1602179055503373ffffffffffffffffffffffffffffffffffffffff167fcd1c39d27a443bebce7f2cf1cb49519e7586ec24d1a7a7c9fcc00f57cd8efbfb82600284815481106107f8576107f7610a9e565b5b9060005260206000209060020201600001544260405161081a93929190610ca3565b60405180910390a250565b60006002828154811061083b5761083a610a9e565b5b9060005260206000209060020201600001549050919050565b6002818154811061086457600080fd5b90600052602060002090600202016000915090508060000154908060010160009054906101000a900473ffffffffffffffffffffffffffffffffffffffff16905082565b600073ffffffffffffffffffffffffffffffffffffffff82169050919050565b60006108d3826108a8565b9050919050565b6108e3816108c8565b82525050565b60006020820190506108fe60008301846108da565b92915050565b6000819050919050565b61091781610904565b82525050565b6000602082019050610932600083018461090e565b92915050565b600080fd5b61094681610904565b811461095157600080fd5b50565b6000813590506109638161093d565b92915050565b60006020828403121561097f5761097e610938565b5b600061098d84828501610954565b91505092915050565b60006109a1826108a8565b9050919050565b6109b181610996565b82525050565b60006020820190506109cc60008301846109a8565b92915050565b60006040820190506109e7600083018561090e565b6109f460208301846109a8565b9392505050565b600082825260208201905092915050565b7f4f6e6c79206f776e65722063616e2063616c6c20746869732066756e6374696f60008201527f6e00000000000000000000000000000000000000000000000000000000000000602082015250565b6000610a686021836109fb565b9150610a7382610a0c565b604082019050919050565b60006020820190508181036000830152610a9781610a5b565b9050919050565b7f4e487b7100000000000000000000000000000000000000000000000000000000600052603260045260246000fd5b7f4f6e6c79206f776e65722063616e6e6f742063616c6c20746869732066756e6360008201527f74696f6e00000000000000000000000000000000000000000000000000000000602082015250565b6000610b296024836109fb565b9150610b3482610acd565b604082019050919050565b60006020820190508181036000830152610b5881610b1c565b9050919050565b7f496e76616c696420706574206964000000000000000000000000000000000000600082015250565b6000610b95600e836109fb565b9150610ba082610b5f565b602082019050919050565b60006020820190508181036000830152610bc481610b88565b9050919050565b7f496e73756666696369656e742066756e64000000000000000000000000000000600082015250565b6000610c016011836109fb565b9150610c0c82610bcb565b602082019050919050565b60006020820190508181036000830152610c3081610bf4565b9050919050565b7f54686973206f6e6520697320616c726561647920736f6c640000000000000000600082015250565b6000610c6d6018836109fb565b9150610c7882610c37565b602082019050919050565b60006020820190508181036000830152610c9c81610c60565b9050919050565b6000606082019050610cb8600083018661090e565b610cc5602083018561090e565b610cd2604083018461090e565b94935050505056fea26469706673582212206a8f2e2132d6a77e7938ef5d53ba91ecdf52776824c52f5ae53ddab59fee9f6464736f6c634300080d0033",
  "immutableReferences": {},
  "source": "// SPDX-License-Identifier: MIT\npragma solidity >=0.4.22 <0.9.0;\n\ncontract Petshop {\n  address payable public shopOwner;\n  uint public petCount;\n  struct PetInfo {\n    uint price;\n    address buyer;\n  }\n  PetInfo[] public petInfos;\n  constructor(uint[] memory petPrices) {\n    shopOwner = payable(msg.sender);\n    for (uint i = 0; i < petPrices.length; i++) {\n      PetInfo memory info = PetInfo(petPrices[i] * 1 ether, address(0));\n      petInfos.push(info);\n    }\n    petCount = petPrices.length;\n  }\n\n  modifier onlyOwner {\n    require(msg.sender == shopOwner, \"Only owner can call this function\");\n    _;\n  }\n\n  modifier notAnOwner {\n    require(msg.sender != shopOwner, \"Only owner cannot call this function\");\n    _;\n  }\n\n  function buy(uint petId) external payable notAnOwner {\n    require(petId >= 0 && petId < petCount, \"Invalid pet id\");\n    require(msg.value >= petInfos[petId].price, \"Insufficient fund\");\n    require(petInfos[petId].buyer == address(0), \"This one is already sold\"); //check condition that no one buy this pet before\n    petInfos[petId].buyer = msg.sender;\n\n    emit Sold(petId, msg.sender, petInfos[petId].price, block.timestamp);\n  }\n  function getPetInfo(uint petId) external view returns (uint, address) {\n    return (petInfos[petId].price, petInfos[petId].buyer);\n  }\n  function getBuyer(uint petId) external view returns (address) {\n    return petInfos[petId].buyer;\n  }\n  function getPrice(uint petId) external view returns (uint) {\n    return petInfos[petId].price;\n  }\n  function getBalance() external view onlyOwner returns (uint) {\n    return address(this).balance;\n  }\n  function withdraw(uint amount) external onlyOwner {\n    require(amount <= address(this).balance);\n    shopOwner.transfer(amount);\n    emit Withdrawn(amount, block.timestamp);\n  }\n  function getTotalPets() external view returns (uint) {\n    return petCount;\n  }\n  event Sold(uint petId, address indexed buyer, uint price, uint time);\n  event Withdrawn(uint amount, uint indexed time);\n} \n",
  "sourcePath": "C:\\Users\\boype\\Documents\\CE340\\contracts\\Petshop.sol",
  "compiler": {
    "name": "solc",
    "version": "0.8.13+commit.abaa5c0e.Emscripten.clang"
  },
  "schemaVersion": "3.4.11",
  "updatedAt": "2023-04-18T04:08:17.279Z",
  "networkType": "ethereum",
  "devdoc": {
    "kind": "dev",
    "methods": {},
    "version": 1
  },
  "userdoc": {
    "kind": "user",
    "methods": {},
    "version": 1
  }
}